{
  "contractName": "AtomicSwap",
  "abi": [
    {
      "inputs": [
        {
          "internalType": "address",
          "name": "_addressAliceCoin",
          "type": "address"
        },
        {
          "internalType": "address",
          "name": "_addressBobCoin",
          "type": "address"
        }
      ],
      "stateMutability": "payable",
      "type": "constructor"
    },
    {
      "anonymous": false,
      "inputs": [
        {
          "indexed": false,
          "internalType": "bool",
          "name": "claimed",
          "type": "bool"
        }
      ],
      "name": "Claimed",
      "type": "event"
    },
    {
      "anonymous": false,
      "inputs": [
        {
          "indexed": false,
          "internalType": "address",
          "name": "swapId",
          "type": "address"
        },
        {
          "indexed": false,
          "internalType": "address payable",
          "name": "Owner",
          "type": "address"
        },
        {
          "indexed": false,
          "internalType": "address payable",
          "name": "recipient",
          "type": "address"
        },
        {
          "indexed": false,
          "internalType": "address",
          "name": "tokenAddress",
          "type": "address"
        },
        {
          "indexed": false,
          "internalType": "uint256",
          "name": "amount",
          "type": "uint256"
        },
        {
          "indexed": false,
          "internalType": "bytes32",
          "name": "Hashlock",
          "type": "bytes32"
        },
        {
          "indexed": false,
          "internalType": "uint256",
          "name": "timelock",
          "type": "uint256"
        }
      ],
      "name": "NewAtomicSwap",
      "type": "event"
    },
    {
      "anonymous": false,
      "inputs": [
        {
          "indexed": false,
          "internalType": "bool",
          "name": "refunded",
          "type": "bool"
        }
      ],
      "name": "Refunded",
      "type": "event"
    },
    {
      "inputs": [],
      "name": "secret",
      "outputs": [
        {
          "internalType": "string",
          "name": "",
          "type": "string"
        }
      ],
      "stateMutability": "view",
      "type": "function"
    },
    {
      "inputs": [],
      "name": "tokenA",
      "outputs": [
        {
          "internalType": "contract AliceCoin",
          "name": "",
          "type": "address"
        }
      ],
      "stateMutability": "view",
      "type": "function"
    },
    {
      "inputs": [],
      "name": "tokenB",
      "outputs": [
        {
          "internalType": "contract BobCoin",
          "name": "",
          "type": "address"
        }
      ],
      "stateMutability": "view",
      "type": "function"
    },
    {
      "inputs": [
        {
          "internalType": "address payable",
          "name": "_recipient",
          "type": "address"
        },
        {
          "internalType": "bytes32",
          "name": "_Hashlock",
          "type": "bytes32"
        },
        {
          "internalType": "uint256",
          "name": "_timelock",
          "type": "uint256"
        },
        {
          "internalType": "address",
          "name": "_tokenAddress",
          "type": "address"
        },
        {
          "internalType": "uint256",
          "name": "_amount",
          "type": "uint256"
        }
      ],
      "name": "newSwap",
      "outputs": [
        {
          "internalType": "address",
          "name": "swapId",
          "type": "address"
        }
      ],
      "stateMutability": "payable",
      "type": "function"
    },
    {
      "inputs": [
        {
          "internalType": "uint256",
          "name": "_amount",
          "type": "uint256"
        }
      ],
      "name": "fund",
      "outputs": [],
      "stateMutability": "payable",
      "type": "function"
    },
    {
      "inputs": [],
      "name": "contractBalance",
      "outputs": [
        {
          "internalType": "uint256",
          "name": "",
          "type": "uint256"
        }
      ],
      "stateMutability": "view",
      "type": "function"
    },
    {
      "inputs": [
        {
          "internalType": "string",
          "name": "_secret",
          "type": "string"
        }
      ],
      "name": "claim",
      "outputs": [
        {
          "internalType": "bool",
          "name": "",
          "type": "bool"
        }
      ],
      "stateMutability": "payable",
      "type": "function"
    },
    {
      "inputs": [],
      "name": "refund",
      "outputs": [
        {
          "internalType": "bool",
          "name": "",
          "type": "bool"
        }
      ],
      "stateMutability": "nonpayable",
      "type": "function"
    },
    {
      "inputs": [],
      "name": "ALIbalance",
      "outputs": [
        {
          "internalType": "uint256",
          "name": "",
          "type": "uint256"
        }
      ],
      "stateMutability": "view",
      "type": "function"
    },
    {
      "inputs": [],
      "name": "BOBbalance",
      "outputs": [
        {
          "internalType": "uint256",
          "name": "",
          "type": "uint256"
        }
      ],
      "stateMutability": "view",
      "type": "function"
    },
    {
      "inputs": [
        {
          "internalType": "uint256",
          "name": "_amount",
          "type": "uint256"
        }
      ],
      "name": "approve",
      "outputs": [],
      "stateMutability": "nonpayable",
      "type": "function"
    },
    {
      "inputs": [],
      "name": "getHashlock",
      "outputs": [
        {
          "internalType": "bytes32",
          "name": "",
          "type": "bytes32"
        }
      ],
      "stateMutability": "pure",
      "type": "function"
    },
    {
      "inputs": [],
      "name": "getTimestamp",
      "outputs": [
        {
          "internalType": "uint256",
          "name": "",
          "type": "uint256"
        }
      ],
      "stateMutability": "view",
      "type": "function"
    },
    {
      "inputs": [],
      "name": "getTimelock",
      "outputs": [
        {
          "internalType": "uint256",
          "name": "",
          "type": "uint256"
        }
      ],
      "stateMutability": "view",
      "type": "function"
    }
  ],
  "bytecode": "0x60806040526040518060400160405280600881526020017f4361726f6c696e65000000000000000000000000000000000000000000000000815250600290805190602001906200005192919062000127565b507f604d222bc5d2fbea27c4060354248e0e5f928c893d6f496d7cd9fb0749e2401d60001b6008556040516200243a3803806200243a83398181016040528101906200009e919062000241565b816000806101000a81548173ffffffffffffffffffffffffffffffffffffffff021916908373ffffffffffffffffffffffffffffffffffffffff16021790555080600160006101000a81548173ffffffffffffffffffffffffffffffffffffffff021916908373ffffffffffffffffffffffffffffffffffffffff1602179055505050620002ed565b8280546200013590620002b7565b90600052602060002090601f016020900481019282620001595760008555620001a5565b82601f106200017457805160ff1916838001178555620001a5565b82800160010185558215620001a5579182015b82811115620001a457825182559160200191906001019062000187565b5b509050620001b49190620001b8565b5090565b5b80821115620001d3576000816000905550600101620001b9565b5090565b600080fd5b600073ffffffffffffffffffffffffffffffffffffffff82169050919050565b60006200020982620001dc565b9050919050565b6200021b81620001fc565b81146200022757600080fd5b50565b6000815190506200023b8162000210565b92915050565b600080604083850312156200025b576200025a620001d7565b5b60006200026b858286016200022a565b92505060206200027e858286016200022a565b9150509250929050565b7f4e487b7100000000000000000000000000000000000000000000000000000000600052602260045260246000fd5b60006002820490506001821680620002d057607f821691505b60208210811415620002e757620002e662000288565b5b50919050565b61213d80620002fd6000396000f3fe6080604052600436106100dd5760003560e01c8063940bbaf81161007f578063cafc853c11610059578063cafc853c1461027f578063d1efd30d146102aa578063ee5c717a146102d5578063f3fe12c914610305576100dd565b8063940bbaf81461020f578063b759f9541461023a578063ca1d209d14610263576100dd565b80635f64b55b116100bb5780635f64b55b146101635780636221a54b1461018e5780638b7afe2e146101b95780638c333f5f146101e4576100dd565b80630fc63d10146100e2578063188ec3561461010d578063590e1ae314610138575b600080fd5b3480156100ee57600080fd5b506100f7610335565b6040516101049190611349565b60405180910390f35b34801561011957600080fd5b50610122610359565b60405161012f919061137d565b60405180910390f35b34801561014457600080fd5b5061014d610366565b60405161015a91906113b3565b60405180910390f35b34801561016f57600080fd5b5061017861061e565b60405161018591906113ef565b60405180910390f35b34801561019a57600080fd5b506101a3610644565b6040516101b0919061137d565b60405180910390f35b3480156101c557600080fd5b506101ce61065e565b6040516101db919061137d565b60405180910390f35b3480156101f057600080fd5b506101f9610700565b604051610206919061137d565b60405180910390f35b34801561021b57600080fd5b506102246107a3565b604051610231919061137d565b60405180910390f35b34801561024657600080fd5b50610261600480360381019061025c919061144a565b610845565b005b61027d6004803603810190610278919061144a565b6108e7565b005b34801561028b57600080fd5b5061029461098b565b6040516102a19190611490565b60405180910390f35b3480156102b657600080fd5b506102bf6109bb565b6040516102cc9190611544565b60405180910390f35b6102ef60048036038101906102ea919061160e565b610a49565b6040516102fc9190611698565b60405180910390f35b61031f600480360381019061031a91906117e8565b610df8565b60405161032c91906113b3565b60405180910390f35b60008054906101000a900473ffffffffffffffffffffffffffffffffffffffff1681565b6000804290508091505090565b60003373ffffffffffffffffffffffffffffffffffffffff16600460009054906101000a900473ffffffffffffffffffffffffffffffffffffffff1673ffffffffffffffffffffffffffffffffffffffff16146103f8576040517f08c379a00000000000000000000000000000000000000000000000000000000081526004016103ef906118a3565b60405180910390fd5b60001515600960009054906101000a900460ff1615151461044e576040517f08c379a00000000000000000000000000000000000000000000000000000000081526004016104459061190f565b60405180910390fd5b60001515600960019054906101000a900460ff161515146104a4576040517f08c379a000000000000000000000000000000000000000000000000000000000815260040161049b9061197b565b60405180910390fd5b426104ad610644565b11156104ee576040517f08c379a00000000000000000000000000000000000000000000000000000000081526004016104e5906119e7565b60405180910390fd5b6001600960006101000a81548160ff02191690831515021790555060008054906101000a900473ffffffffffffffffffffffffffffffffffffffff1673ffffffffffffffffffffffffffffffffffffffff1663a9059cbb600460009054906101000a900473ffffffffffffffffffffffffffffffffffffffff1661057061065e565b6040518363ffffffff1660e01b815260040161058d929190611a28565b6020604051808303816000875af11580156105ac573d6000803e3d6000fd5b505050506040513d601f19601f820116820180604052508101906105d09190611a7d565b507f01375d560750c8a2fad744b88b6a60d5a02029d1de0d7378346ed8a2a992e334600960009054906101000a900460ff1660405161060f91906113b3565b60405180910390a16001905090565b600160009054906101000a900473ffffffffffffffffffffffffffffffffffffffff1681565b600080610258426106559190611ad9565b90508091505090565b60008060009054906101000a900473ffffffffffffffffffffffffffffffffffffffff1673ffffffffffffffffffffffffffffffffffffffff166370a08231306040518263ffffffff1660e01b81526004016106ba9190611698565b602060405180830381865afa1580156106d7573d6000803e3d6000fd5b505050506040513d601f19601f820116820180604052508101906106fb9190611b44565b905090565b6000600160009054906101000a900473ffffffffffffffffffffffffffffffffffffffff1673ffffffffffffffffffffffffffffffffffffffff166370a08231306040518263ffffffff1660e01b815260040161075d9190611698565b602060405180830381865afa15801561077a573d6000803e3d6000fd5b505050506040513d601f19601f8201168201806040525081019061079e9190611b44565b905090565b60008060009054906101000a900473ffffffffffffffffffffffffffffffffffffffff1673ffffffffffffffffffffffffffffffffffffffff166370a08231306040518263ffffffff1660e01b81526004016107ff9190611698565b602060405180830381865afa15801561081c573d6000803e3d6000fd5b505050506040513d601f19601f820116820180604052508101906108409190611b44565b905090565b60008054906101000a900473ffffffffffffffffffffffffffffffffffffffff1673ffffffffffffffffffffffffffffffffffffffff1663095ea7b333836040518363ffffffff1660e01b81526004016108a0929190611b71565b6020604051808303816000875af11580156108bf573d6000803e3d6000fd5b505050506040513d601f19601f820116820180604052508101906108e39190611a7d565b5050565b60008054906101000a900473ffffffffffffffffffffffffffffffffffffffff1673ffffffffffffffffffffffffffffffffffffffff166323b872dd3330846040518463ffffffff1660e01b815260040161094493929190611b9a565b6020604051808303816000875af1158015610963573d6000803e3d6000fd5b505050506040513d601f19601f820116820180604052508101906109879190611a7d565b5050565b6000807f604d222bc5d2fbea27c4060354248e0e5f928c893d6f496d7cd9fb0749e2401d60001b90508091505090565b600280546109c890611c00565b80601f01602080910402602001604051908101604052809291908181526020018280546109f490611c00565b8015610a415780601f10610a1657610100808354040283529160200191610a41565b820191906000526020600020905b815481529060010190602001808311610a2457829003601f168201915b505050505081565b600082338360008111610a91576040517f08c379a0000000000000000000000000000000000000000000000000000000008152600401610a8890611ca4565b60405180910390fd5b8060008054906101000a900473ffffffffffffffffffffffffffffffffffffffff1673ffffffffffffffffffffffffffffffffffffffff1663dd62ed3e84306040518363ffffffff1660e01b8152600401610aed929190611cc4565b602060405180830381865afa158015610b0a573d6000803e3d6000fd5b505050506040513d601f19601f82011682018060405250810190610b2e9190611b44565b1015610b6f576040517f08c379a0000000000000000000000000000000000000000000000000000000008152600401610b6690611d39565b60405180910390fd5b86428111610bb2576040517f08c379a0000000000000000000000000000000000000000000000000000000008152600401610ba990611dcb565b60405180910390fd5b6040518060a001604052808b73ffffffffffffffffffffffffffffffffffffffff1681526020013373ffffffffffffffffffffffffffffffffffffffff1681526020018a815260200189815260200187815250600b60008201518160000160006101000a81548173ffffffffffffffffffffffffffffffffffffffff021916908373ffffffffffffffffffffffffffffffffffffffff16021790555060208201518160010160006101000a81548173ffffffffffffffffffffffffffffffffffffffff021916908373ffffffffffffffffffffffffffffffffffffffff160217905550604082015181600201556060820151816003015560808201518160040155905050610cbf856111cc565b15610cff576040517f08c379a0000000000000000000000000000000000000000000000000000000008152600401610cf690611e37565b60405180910390fd5b6007549750600160009054906101000a900473ffffffffffffffffffffffffffffffffffffffff1673ffffffffffffffffffffffffffffffffffffffff1663095ea7b3306203d0906040518363ffffffff1660e01b8152600401610d64929190611e92565b6020604051808303816000875af1158015610d83573d6000803e3d6000fd5b505050506040513d601f19601f82011682018060405250810190610da79190611a7d565b507fc463de867524a400f24e7ce6bc6abfed5bdfce3b3ab7bf0ff0e37ca73dbe27c6858b8c8a8a8e8e604051610de39796959493929190611eca565b60405180910390a15050505095945050505050565b6000801515600960019054906101000a900460ff16151514610e4f576040517f08c379a0000000000000000000000000000000000000000000000000000000008152600401610e4690611f85565b60405180910390fd5b60001515600960009054906101000a900460ff16151514610ea5576040517f08c379a0000000000000000000000000000000000000000000000000000000008152600401610e9c90611ff1565b60405180910390fd5b8180604051602001610eb7919061204d565b6040516020818303038152906040528051906020012060085414610f10576040517f08c379a0000000000000000000000000000000000000000000000000000000008152600401610f07906120b0565b60405180910390fd5b8260029080519060200190610f26929190611227565b506001600960016101000a81548160ff02191690831515021790555060008054906101000a900473ffffffffffffffffffffffffffffffffffffffff1673ffffffffffffffffffffffffffffffffffffffff1663a9059cbb600b60000160009054906101000a900473ffffffffffffffffffffffffffffffffffffffff16600b600401546040518363ffffffff1660e01b8152600401610fc7929190611a28565b6020604051808303816000875af1158015610fe6573d6000803e3d6000fd5b505050506040513d601f19601f8201168201806040525081019061100a9190611a7d565b50600160009054906101000a900473ffffffffffffffffffffffffffffffffffffffff1673ffffffffffffffffffffffffffffffffffffffff166323b872dd33306203d0906040518463ffffffff1660e01b815260040161106d939291906120d0565b6020604051808303816000875af115801561108c573d6000803e3d6000fd5b505050506040513d601f19601f820116820180604052508101906110b09190611a7d565b50600160009054906101000a900473ffffffffffffffffffffffffffffffffffffffff1673ffffffffffffffffffffffffffffffffffffffff1663a9059cbb600b60010160009054906101000a900473ffffffffffffffffffffffffffffffffffffffff16600b600401546040518363ffffffff1660e01b8152600401611138929190611a28565b6020604051808303816000875af1158015611157573d6000803e3d6000fd5b505050506040513d601f19601f8201168201806040525081019061117b9190611a7d565b507f5e540da4d7c1b62cc394357318d97c58afa8d4121adf901800766bec5c6c037a600960019054906101000a900460ff166040516111ba91906113b3565b60405180910390a16001915050919050565b60008073ffffffffffffffffffffffffffffffffffffffff16600460009054906101000a900473ffffffffffffffffffffffffffffffffffffffff1673ffffffffffffffffffffffffffffffffffffffff1614159050919050565b82805461123390611c00565b90600052602060002090601f016020900481019282611255576000855561129c565b82601f1061126e57805160ff191683800117855561129c565b8280016001018555821561129c579182015b8281111561129b578251825591602001919060010190611280565b5b5090506112a991906112ad565b5090565b5b808211156112c65760008160009055506001016112ae565b5090565b600073ffffffffffffffffffffffffffffffffffffffff82169050919050565b6000819050919050565b600061130f61130a611305846112ca565b6112ea565b6112ca565b9050919050565b6000611321826112f4565b9050919050565b600061133382611316565b9050919050565b61134381611328565b82525050565b600060208201905061135e600083018461133a565b92915050565b6000819050919050565b61137781611364565b82525050565b6000602082019050611392600083018461136e565b92915050565b60008115159050919050565b6113ad81611398565b82525050565b60006020820190506113c860008301846113a4565b92915050565b60006113d982611316565b9050919050565b6113e9816113ce565b82525050565b600060208201905061140460008301846113e0565b92915050565b6000604051905090565b600080fd5b600080fd5b61142781611364565b811461143257600080fd5b50565b6000813590506114448161141e565b92915050565b6000602082840312156114605761145f611414565b5b600061146e84828501611435565b91505092915050565b6000819050919050565b61148a81611477565b82525050565b60006020820190506114a56000830184611481565b92915050565b600081519050919050565b600082825260208201905092915050565b60005b838110156114e55780820151818401526020810190506114ca565b838111156114f4576000848401525b50505050565b6000601f19601f8301169050919050565b6000611516826114ab565b61152081856114b6565b93506115308185602086016114c7565b611539816114fa565b840191505092915050565b6000602082019050818103600083015261155e818461150b565b905092915050565b6000611571826112ca565b9050919050565b61158181611566565b811461158c57600080fd5b50565b60008135905061159e81611578565b92915050565b6115ad81611477565b81146115b857600080fd5b50565b6000813590506115ca816115a4565b92915050565b60006115db826112ca565b9050919050565b6115eb816115d0565b81146115f657600080fd5b50565b600081359050611608816115e2565b92915050565b600080600080600060a0868803121561162a57611629611414565b5b60006116388882890161158f565b9550506020611649888289016115bb565b945050604061165a88828901611435565b935050606061166b888289016115f9565b925050608061167c88828901611435565b9150509295509295909350565b611692816115d0565b82525050565b60006020820190506116ad6000830184611689565b92915050565b600080fd5b600080fd5b7f4e487b7100000000000000000000000000000000000000000000000000000000600052604160045260246000fd5b6116f5826114fa565b810181811067ffffffffffffffff82111715611714576117136116bd565b5b80604052505050565b600061172761140a565b905061173382826116ec565b919050565b600067ffffffffffffffff821115611753576117526116bd565b5b61175c826114fa565b9050602081019050919050565b82818337600083830152505050565b600061178b61178684611738565b61171d565b9050828152602081018484840111156117a7576117a66116b8565b5b6117b2848285611769565b509392505050565b600082601f8301126117cf576117ce6116b3565b5b81356117df848260208601611778565b91505092915050565b6000602082840312156117fe576117fd611414565b5b600082013567ffffffffffffffff81111561181c5761181b611419565b5b611828848285016117ba565b91505092915050565b7f4f6e6c79207468652073656e646572206f66207468697320636f696e2063616e60008201527f20726566756e6400000000000000000000000000000000000000000000000000602082015250565b600061188d6027836114b6565b915061189882611831565b604082019050919050565b600060208201905081810360008301526118bc81611880565b9050919050565b7f416c726561647920726566756e64656400000000000000000000000000000000600082015250565b60006118f96010836114b6565b9150611904826118c3565b602082019050919050565b60006020820190508181036000830152611928816118ec565b9050919050565b7f416c726561647920636c61696d65640000000000000000000000000000000000600082015250565b6000611965600f836114b6565b91506119708261192f565b602082019050919050565b6000602082019050818103600083015261199481611958565b9050919050565b7f54696d656c6f636b206e6f742079657420706173736564000000000000000000600082015250565b60006119d16017836114b6565b91506119dc8261199b565b602082019050919050565b60006020820190508181036000830152611a00816119c4565b9050919050565b6000611a1282611316565b9050919050565b611a2281611a07565b82525050565b6000604082019050611a3d6000830185611a19565b611a4a602083018461136e565b9392505050565b611a5a81611398565b8114611a6557600080fd5b50565b600081519050611a7781611a51565b92915050565b600060208284031215611a9357611a92611414565b5b6000611aa184828501611a68565b91505092915050565b7f4e487b7100000000000000000000000000000000000000000000000000000000600052601160045260246000fd5b6000611ae482611364565b9150611aef83611364565b9250827fffffffffffffffffffffffffffffffffffffffffffffffffffffffffffffffff03821115611b2457611b23611aaa565b5b828201905092915050565b600081519050611b3e8161141e565b92915050565b600060208284031215611b5a57611b59611414565b5b6000611b6884828501611b2f565b91505092915050565b6000604082019050611b866000830185611689565b611b93602083018461136e565b9392505050565b6000606082019050611baf6000830186611689565b611bbc6020830185611689565b611bc9604083018461136e565b949350505050565b7f4e487b7100000000000000000000000000000000000000000000000000000000600052602260045260246000fd5b60006002820490506001821680611c1857607f821691505b60208210811415611c2c57611c2b611bd1565b5b50919050565b7f546f6b656e20616d6f756e74206d75737420626520677265617465722074686160008201527f6e20300000000000000000000000000000000000000000000000000000000000602082015250565b6000611c8e6023836114b6565b9150611c9982611c32565b604082019050919050565b60006020820190508181036000830152611cbd81611c81565b9050919050565b6000604082019050611cd96000830185611689565b611ce66020830184611689565b9392505050565b7f416c6c6f77616e6365206d7573742062652067726561746572207468616e2030600082015250565b6000611d236020836114b6565b9150611d2e82611ced565b602082019050919050565b60006020820190508181036000830152611d5281611d16565b9050919050565b7f74696d656c6f636b2068617320746f2062652073657420696e2074686520667560008201527f7475726500000000000000000000000000000000000000000000000000000000602082015250565b6000611db56024836114b6565b9150611dc082611d59565b604082019050919050565b60006020820190508181036000830152611de481611da8565b9050919050565b7f436f6e7472616374206578697374730000000000000000000000000000000000600082015250565b6000611e21600f836114b6565b9150611e2c82611deb565b602082019050919050565b60006020820190508181036000830152611e5081611e14565b9050919050565b6000819050919050565b6000611e7c611e77611e7284611e57565b6112ea565b611364565b9050919050565b611e8c81611e61565b82525050565b6000604082019050611ea76000830185611689565b611eb46020830184611e83565b9392505050565b611ec481611566565b82525050565b600060e082019050611edf600083018a611689565b611eec6020830189611ebb565b611ef96040830188611ebb565b611f066060830187611689565b611f13608083018661136e565b611f2060a0830185611481565b611f2d60c083018461136e565b98975050505050505050565b7f616c726561647920636c61696d65640000000000000000000000000000000000600082015250565b6000611f6f600f836114b6565b9150611f7a82611f39565b602082019050919050565b60006020820190508181036000830152611f9e81611f62565b9050919050565b7f616c726561647920726566756e64656400000000000000000000000000000000600082015250565b6000611fdb6010836114b6565b9150611fe682611fa5565b602082019050919050565b6000602082019050818103600083015261200a81611fce565b9050919050565b600081905092915050565b6000612027826114ab565b6120318185612011565b93506120418185602086016114c7565b80840191505092915050565b6000612059828461201c565b915081905092915050565b7f696e636f727265637420686173686c6f636b0000000000000000000000000000600082015250565b600061209a6012836114b6565b91506120a582612064565b602082019050919050565b600060208201905081810360008301526120c98161208d565b9050919050565b60006060820190506120e56000830186611689565b6120f26020830185611689565b6120ff6040830184611e83565b94935050505056fea2646970667358221220ad046dbb3bdc0543f3171b280b5409eba716ae6f0091ac66e969297f20141e0c64736f6c634300080b0033",
  "immutableReferences": {},
  "source": "// SPDX-License-Identifier: GPL-3.0\r\n\r\npragma solidity ^0.8.1;\r\n\r\nimport \"@openzeppelin/contracts/token/ERC20/ERC20.sol\";\r\nimport \"@openzeppelin/contracts/token/ERC20/IERC20.sol\";\r\n\r\n\r\n/* \r\n    Coin Contracts that will create the \r\n    AliceCoin and BobCoin tokens \r\n    Both tokens are created with a supply\r\n    Both token contracts are automatically approved to spend tokens\r\n    */\r\n\r\n\r\ncontract AliceCoin is ERC20 {\r\n    constructor() ERC20(\"AliceCoin\", \"ALI\") {\r\n        _mint(msg.sender, 1000000);\r\n        _approve(msg.sender, address(this), 250000);\r\n        _approve(msg.sender, msg.sender, 250000);\r\n    } \r\n}\r\n\r\ncontract BobCoin is ERC20{\r\n    constructor() ERC20(\"BobCoin\", \"BOB\"){\r\n        _mint(msg.sender, 1000000);\r\n        _approve(msg.sender, address(this), 250000);\r\n        _approve(msg.sender, msg.sender, 250000);\r\n    }\r\n}\r\n/*\r\n    \r\n    Remix:\r\n    _tokenAddress == Address of tokens\r\n    msg.sender == address of contract\r\n    owner == address of contract 0x5B3\r\n    spender == address of account 0xAb8\r\n    recipient == address of account 0xAb8\r\n\r\n    On AliceCoin contract:\r\n    Supply on account 1 (0x5B3) --\r\n\r\n    (Make sure account is set to 0x5B3)\r\n    \r\n    transfer() to other accounts (0xAb8 or 0x4B2)\r\n    approve() to the same accounts\r\n    use transferFrom() between any of the accounts, make sure that its greater than <  allowance && < balanceOf \r\n    \r\n    \r\n    On AtomicSwap contract:\r\n    On AliceCoin, approve smartcontract(address) to spend tokens\r\n\r\n    Approve -- Allowance -- transferFrom\r\n    supply -- balanceOf -- transfer\r\n\r\n\r\n\r\n*/\r\n\r\n\r\n\r\ncontract AtomicSwap{\r\n    AliceCoin public tokenA;\r\n    BobCoin public tokenB;\r\n    string public secret = \"Caroline\";\r\n    // User who should recieve the contract\r\n    address payable recipient;\r\n    // Owner of the coin \r\n    address payable  Owner;\r\n    // Address of the token\r\n    address tokenAddress;\r\n    // The amount of the tokens swapped \r\n    uint256 amount;\r\n    //uint256 amount; // An amount of the token wanting to be transferred\r\n    // Time stated for Swap to be executed\r\n    uint256 timelock;\r\n    // Cryptographic secret key \r\n    bytes32 Hashlock = 0x604d222bc5d2fbea27c4060354248e0e5f928c893d6f496d7cd9fb0749e2401d;\r\n    // Secret key \r\n    //string public secret = \"djkcoeuxhjkdf\";\r\n    // Boolean to check if the owner has been refunded \r\n    bool refunded; \r\n    // Boolean to check if the token has been claimed\r\n    bool claimed;\r\n\r\n     // A constructor for the smart contract\r\n     constructor(address _addressAliceCoin, address _addressBobCoin) payable {\r\n        tokenA = AliceCoin(_addressAliceCoin);\r\n        tokenB = BobCoin(_addressBobCoin);\r\n     }\r\n     \r\n\r\n    mapping(address => mapping(address => uint256)) private _allowances;\r\n    //mapping(address => Swap) public swaps;\r\n\r\n\r\n    event NewAtomicSwap(\r\n        address swapId,\r\n        address payable Owner,\r\n        address payable recipient,\r\n        address tokenAddress,\r\n        uint256 amount,\r\n        bytes32 Hashlock,\r\n        uint256 timelock\r\n    );\r\n    event Claimed(\r\n        bool claimed\r\n    );\r\n    event Refunded(\r\n        bool refunded\r\n    );\r\n\r\n    // Modifiers \r\n\r\n    /* Check the account has a funded allowance  */\r\n\r\n    modifier checkAllowance(address _token, address _Owner, uint256 _amount){\r\n        require(_amount > 0, \"Token amount must be greater than 0\");\r\n        require(tokenA.allowance(_Owner, address(this)) >= _amount, \"Allowance must be greater than 0\");\r\n        _;\r\n    }\r\n\r\n    /* Make sure the timelock is set in the future  */\r\n\r\n    modifier futureTimelock(uint256 _time){\r\n        require(_time > block.timestamp, \"timelock has to be set in the future\");\r\n        _;\r\n    }\r\n\r\n    /* Requirements in place for claiming the token  */\r\n\r\n    modifier claimable() {\r\n            //require(swaps[_swapId].recipient == recipient, \"This is not the right recipient\");\r\n            //require(getTimestamp() < _timelock, \"Cannot claim : Timelock has expired\");\r\n            require(claimed == false, \"already claimed\");\r\n            require(refunded == false, \"already refunded\");\r\n            _;\r\n    }\r\n\r\n\r\n    /* \r\n    Create a modifier to check if the secret (in hash form) \r\n    matches the hashlock\r\n       */\r\n\r\n\r\n    modifier matchingHashlocks(string memory _secret){\r\n        require(Hashlock == keccak256(abi.encodePacked(_secret)),\r\n            \"incorrect hashlock\"\r\n        );\r\n        _;\r\n    }\r\n\r\n    /* Modifier check for refund funciton */\r\n    /*  */\r\n\r\n    modifier refundable() {\r\n        require(Owner == msg.sender, \"Only the sender of this coin can refund\");\r\n        require(refunded == false, \"Already refunded\"); // Check coin has not already been funded\r\n        require(claimed == false, \"Already claimed\"); // Check coin is not claimed already\r\n        require(getTimelock() <= block.timestamp, \"Timelock not yet passed\"); // Check time has not expired\r\n        _;\r\n    }\r\n\r\n    /* A struct made to store information entered into the newSwap function s */\r\n\r\n\r\n    struct SwapInfo{\r\n            address payable r;\r\n            address payable o;\r\n            bytes32 h;\r\n            uint256 t;\r\n            uint256 a;\r\n        }\r\n    SwapInfo Inf; // Instantiate the struct\r\n\r\n\r\n    /* function to initiate a swap  */\r\n\r\n    function newSwap(\r\n        address payable _recipient, \r\n        bytes32 _Hashlock,\r\n        uint256 _timelock,\r\n        address _tokenAddress,\r\n        uint256 _amount\r\n        )\r\n    public  // Visibility\r\n    payable\r\n    checkAllowance(_tokenAddress, msg.sender, _amount)\r\n    futureTimelock(_timelock)\r\n    returns(address swapId)\r\n    {\r\n\r\n        /* Store input information to be used later  */\r\n        Inf = SwapInfo(_recipient, payable(msg.sender), _Hashlock, _timelock, _amount);\r\n\r\n        if(haveContract(swapId))\r\n            revert(\"Contract exists\");\r\n        \r\n        _timelock = timelock;\r\n        //tokenA.transfer(_recipient, _amount);\r\n        tokenB.approve(address(this), 250000);\r\n\r\n        emit NewAtomicSwap(\r\n            swapId,\r\n            payable(_recipient),\r\n            _recipient,\r\n            _tokenAddress,\r\n            _amount,\r\n            _Hashlock,\r\n            _timelock\r\n        );     \r\n    }\r\n\r\n    \r\n\r\n    function fund(uint256 _amount) external payable {\r\n        // Token is sent from account caller --> AtomicSwap contract\r\n        // AtomicSwap contract now holds some tokenA\r\n        tokenA.transferFrom(msg.sender, address(this), _amount);\r\n    }\r\n\r\n    function contractBalance() view public returns(uint256){\r\n        return tokenA.balanceOf(address(this));\r\n    }\r\n\r\n    /* Function for recipient to claim token */\r\n    function claim(string memory _secret) public payable \r\n    claimable() \r\n    matchingHashlocks(_secret) \r\n    \r\n    returns(bool)\r\n    \r\n    {\r\n        secret = _secret;\r\n        claimed = true;\r\n        \r\n        tokenA.transfer(Inf.r, Inf.a);\r\n        \r\n        tokenB.transferFrom(msg.sender, address(this), 250000);\r\n        tokenB.transfer(Inf.o, Inf.a);\r\n        \r\n        emit Claimed(claimed);\r\n        return true;\r\n    }\r\n\r\n    function refund() external \r\n    \r\n    refundable() \r\n    returns(bool) {   \r\n       \r\n       refunded = true;\r\n       tokenA.transfer(Owner, contractBalance());\r\n       emit Refunded(refunded);\r\n       return true;\r\n    }\r\n    \r\n    \r\n    function ALIbalance() external view returns (uint256) {\r\n        // Check balance of tokenA (AliceCoin)\r\n        return tokenA.balanceOf(address(this));\r\n    }\r\n    \r\n    function BOBbalance() external view returns (uint256) {\r\n        // Check balance of tokenB (BobCoin)\r\n        return tokenB.balanceOf(address(this));\r\n    }\r\n\r\n    function approve(uint256 _amount) external  {\r\n       \r\n        tokenA.approve(msg.sender, _amount);\r\n    }\r\n\r\n\r\n    function haveContract(address _swapId) internal view returns (bool available){\r\n        available = Owner != address(0);\r\n    }\r\n\r\n    function getHashlock() public pure returns (bytes32){\r\n        bytes32 ash = 0x604d222bc5d2fbea27c4060354248e0e5f928c893d6f496d7cd9fb0749e2401d;\r\n        return ash;\r\n    }\r\n\r\n    /* Returns current time in Unix Epoch seconds */\r\n\r\n    function getTimestamp() public view returns(uint256) {\r\n        uint256 t = block.timestamp;\r\n        return t;\r\n    }\r\n\r\n    /* Returns the timestamp + extra 600 seconds  */\r\n\r\n    function getTimelock() public view returns(uint256){\r\n        uint256 tm  = block.timestamp + 600; // Ten minutes\r\n        return tm;\r\n    }\r\n\r\n\r\n}",
  "sourcePath": "C:\\Users\\Shemar\\OneDrive - University of Surrey\\FYP\\Code\\AtomicSwap-Truffle\\contracts\\AtomicSwap.sol",
  "compiler": {
    "name": "solc",
    "version": "0.8.11+commit.d7f03943.Emscripten.clang"
  },
  "schemaVersion": "3.4.7",
  "updatedAt": "2022-05-16T16:28:39.034Z",
  "devdoc": {
    "kind": "dev",
    "methods": {},
    "version": 1
  },
  "userdoc": {
    "kind": "user",
    "methods": {},
    "version": 1
  }
}