{
  "contractName": "Hash",
  "abi": [
    {
      "inputs": [
        {
          "internalType": "string",
          "name": "_key",
          "type": "string"
        }
      ],
      "name": "calculateHash",
      "outputs": [
        {
          "internalType": "bytes32",
          "name": "",
          "type": "bytes32"
        }
      ],
      "stateMutability": "pure",
      "type": "function"
    }
  ],
  "bytecode": "0x608060405234801561001057600080fd5b5061032e806100206000396000f3fe608060405234801561001057600080fd5b506004361061002b5760003560e01c8063a8cbcecd14610030575b600080fd5b61004a600480360381019061004591906101ea565b610060565b604051610057919061024c565b60405180910390f35b60008160405160200161007391906102e1565b604051602081830303815290604052805190602001209050919050565b6000604051905090565b600080fd5b600080fd5b600080fd5b600080fd5b6000601f19601f8301169050919050565b7f4e487b7100000000000000000000000000000000000000000000000000000000600052604160045260246000fd5b6100f7826100ae565b810181811067ffffffffffffffff82111715610116576101156100bf565b5b80604052505050565b6000610129610090565b905061013582826100ee565b919050565b600067ffffffffffffffff821115610155576101546100bf565b5b61015e826100ae565b9050602081019050919050565b82818337600083830152505050565b600061018d6101888461013a565b61011f565b9050828152602081018484840111156101a9576101a86100a9565b5b6101b484828561016b565b509392505050565b600082601f8301126101d1576101d06100a4565b5b81356101e184826020860161017a565b91505092915050565b600060208284031215610200576101ff61009a565b5b600082013567ffffffffffffffff81111561021e5761021d61009f565b5b61022a848285016101bc565b91505092915050565b6000819050919050565b61024681610233565b82525050565b6000602082019050610261600083018461023d565b92915050565b600081519050919050565b600081905092915050565b60005b8381101561029b578082015181840152602081019050610280565b838111156102aa576000848401525b50505050565b60006102bb82610267565b6102c58185610272565b93506102d581856020860161027d565b80840191505092915050565b60006102ed82846102b0565b91508190509291505056fea2646970667358221220983ef4bbe120c1124eb04e8ceb0f8c1619391802cbc8ffd13ae4771c78b95fa064736f6c634300080b0033",
  "immutableReferences": {},
  "source": "// SPDX-License-Identifier: MIT\r\npragma solidity ^0.8.1;\r\n\r\ncontract Hash {\r\n    function calculateHash(string memory _key) external pure  returns(bytes32){\r\n        return keccak256(abi.encodePacked(_key));\r\n    }\r\n}\r\n",
  "sourcePath": "C:\\Users\\Shemar\\OneDrive - University of Surrey\\FYP\\Code\\AtomicSwap-Truffle\\contracts\\Hash.sol",
  "compiler": {
    "name": "solc",
    "version": "0.8.11+commit.d7f03943.Emscripten.clang"
  },
  "schemaVersion": "3.4.7",
  "updatedAt": "2022-05-16T16:28:39.075Z",
  "devdoc": {
    "kind": "dev",
    "methods": {},
    "version": 1
  },
  "userdoc": {
    "kind": "user",
    "methods": {},
    "version": 1
  }
}